:020000040800F2
:10000000280700205D1B0008711A0008731A0008F9
:1000100000000000000000000000000000000000E0
:10002000000000000000000000000000771A000837
:100030000000000000000000791A00087B1A000888
:10004000000000000000000000000000DB080008C5
:10005000830D00089B0E00085B1100087D1B000843
:100060000000000000000000000000000000000090
:10007000951A0008831A0008E71100080000000024
:10008000000000000B140008000000001F19000809
:10009000000000000000000000000000FB16000847
:1000A000000000001319000800000000851A000875
:1000B0000000000000000000000000000000000040
:1000C000F8B50400002C01D1012086E1012520684B
:1000D000284000281BD0A948006838210140009121
:1000E0000098082804D16068002810D1012074E12C
:1000F0008020C0026168814204D1B8490A68104377
:10010000086004E0B5480168B54A0A40026002266A
:1001100020683040002800D183E0984800683821EA
:1001200001400091009800283FD1AC48006840058C
:1001300004D52069002801D101204EE1A9480168B9
:10014000090C0904A2690A43026000F089FA070059
:10015000A2480068400506D400F082FAC01B0328BC
:10016000F6D3032039E10098002816D19B48016896
:100170009D4A0A4061691143016000F0FFF99B4903
:100180007E4A1268120A1207120F04235A43895C2E
:10019000C906C90EC840964908609648006800F034
:1001A00065FA00283DD0012017E12069002824D0FD
:1001B0008A4800688C4901406069084387490860A3
:1001C000864800688021490001438448016000F0AE
:1001D00047FA070081480068400506D400F040FA5D
:1001E000C01B0328F6D30320F7E07E480168090C02
:1001F0000904A2690A43026013E0784800687E4956
:1002000001407648016000F02BFA0700734800684F
:10021000400506D500F024FAC01B0328F6D30320BE
:10022000DBE02078000776D554480068382101408B
:1002300018293BD1714800683040002804D0E0699B
:10024000002801D10120C8E0664802686C491140CD
:10025000226A12040A43026000F002FA07006748AB
:1002600000683040002806D100F0FAF9C01B0328CE
:10027000F5D30320B1E0009818280FD100F07EF9E3
:100280005A493E4A1268120A1207120F04235A43AF
:10029000895CC906C90EC8405549086055480068C0
:1002A00000F0E4F9002836D0012096E0E06900284B
:1002B0001CD05248006828435049086000F0D0F92B
:1002C00007004E4800683040002806D100F0C8F909
:1002D000C01B0328F5D303207FE042480268484949
:1002E0001140226A12040A43026014E04348006885
:1002F000012188434149086000F0B2F907003F48F6
:1003000000683040002806D000F0AAF9C01B03287E
:10031000F5D3032061E004202168014000295BD06F
:100320001649096838220A40202A09D190480068F5
:100330000640002E50D0A06800284DD101204CE08E
:10034000A168002906D08B490B688B4A1A40E368E4
:1003500013430B60A168012904D1854801680D434E
:10036000056016E0A16805290AD181490A68104391
:100370000860086805430D600BE000BF08100240EC
:100380007B48016801229143016001680422914386
:100390000160A06800280FD000F062F907007448DF
:1003A00000683040002817D100F05AF9C01B9D4961
:1003B0008842F4D3032010E000F052F907006C48A3
:1003C00000683040002807D000F04AF9C01B95496A
:1003D0008842F4D3032000E00020F2BD0010024068
:1003E000FFFFFBFF04100240FFC7FFFF9C1900083E
:1003F0000800002000000020FFFEFFFF6010024008
:10040000FFFF00FEF3B581B00400002C01D10120F4
:10041000ADE00125844E306828400299884216D20A
:1004200030680121884302990143316000F018F9D6
:100430000090306828400299884208D000F010F9F6
:100440000099401A77498842F3D303208FE00220B5
:100450002168014000290FD02178490705D573494B
:100460000A68E023DB0113430B6070490A68704B94
:100470001340A2681A430A602168294000293CD031
:100480006168012905D16B48006840031BD4012035
:100490006DE06168002905D166480068400512D406
:1004A000012064E06168042906D1314909680840E7
:1004B000002808D101205AE05F4909680840002857
:1004C00001D1012053E0594F386807218843616802
:1004D0000143396000F0C4F80090386838210140C9
:1004E0006068C000814208D000F0BAF80099401A54
:1004F0004C498842F1D3032039E002983168294001
:10050000884216D230680121884302990143316044
:1005100000F0A6F80090306828400299884208D080
:1005200000F09EF80099401A3E498842F3D3032018
:100530001DE02078400706D53C4801683F4A0A4044
:10054000E1681143016000F019F83D49374A12682B
:10055000120A1207120F04235A43895CC906C90EF6
:10056000C840384908603848006800F07FF8FEBD90
:100570005C10024010100240FFFFFCFF38B588B04D
:1005800068463249202200F0A3F8382027490A683B
:100590000240002A15D107200121264A1268D20AFA
:1005A0000300134099400D0029490968490B084090
:1005B00004006846042161434058290000F0BBF85C
:1005C0002EE00A680240082A01D1224828E00A6881
:1005D0000240202A02D18020000221E00968084060
:1005E00018281CD11A480168090CC905C90D1A4AF6
:1005F0001268D205D20D914202D1802000020FE094
:100600000068000CC005C00D14490968C905C90D72
:10061000884202D19620000202E0002000E0002083
:1006200009B030BD891300000020024008100240CC
:10063000FFF0FFFF0010024060100240FF8FFFFF3D
:100640009C1900080800002000000020D41A0008AF
:100650000410024000366E014401FF1F4801FF1FD5
:1006600001480068704700BF1C03002038B5050032
:1006700000241449086800281ED0FA208000096868
:1006800000F059F801001048006800F054F800F03C
:1006900012F900280DD1042D08D2002229000020D3
:1006A000C04300F0FEF80948056007E0012004009F
:1006B00004E00120040001E0012004002000C0B299
:1006C00032BD00BF04000020080000200000002010
:1006D00070B4103A03D378C9103A78C0FBD25307EC
:1006E00001D318C918C001D508C908C0D20704D35E
:1006F0000B880380891C801C002A01D50B780370AD
:1007000070BC7047F446002804D4494200F013F846
:10071000404260474042002905D45FD000F00BF80A
:10072000404249426047494200F005F8494260476B
:1007300003460B43E6D40022030A8B420BD2030983
:100740008B4219D243088B422ED2411A00D2014665
:10075000524110467047FF2209023FD012068B42D9
:1007600005D3121209028B4201D3121209020309A6
:100770008B4219D300E0090AC3098B4201D3CB0194
:10078000C01A524183098B4201D38B01C01A5241D6
:1007900043098B4201D34B01C01A524103098B42DA
:1007A00001D30B01C01A5241C3088B4201D3CB00C5
:1007B000C01A524183088B4201D38B00C01A5241A8
:1007C00043088B4201D34B00C01A5241884200D3E8
:1007D000401A5241CFD201461046704708B500F08A
:1007E0007BF808BDF0B5020052B2002A23D50322DF
:1007F0000F24344B05006DB22540083DAD0804269A
:100800007543060076B23440083CA40804267443BD
:100810001E59FF27BC461400044008277C43674646
:10082000A740BE438C01E4B2024008277A439440BB
:1008300034435C511BE0244A0323040064B2A4083F
:1008400004256C431459FF251E00064008277E43EB
:10085000B540AC438D01EDB20340082673439D4083
:10086000254303005BB29B0804246343D550F0BDCD
:1008700010B50400601E80214904884201D3012084
:100880000EE0601E1149086003210020C043FFF7FD
:10089000A9FF00200E49086007200E4908600020CB
:1008A00010BD70B505000C0016002100280040B2F4
:1008B000FFF798FF70BD10B504002000FFF7D8FFC8
:1008C00010BD00001CED00E000E400E014E000E0DA
:1008D00018E000E010E000E07047FEE738B50400E3
:1008E000002C01D1012048E082256D006068A842FB
:1008F00001D00020E0613D20205C002805D10020CF
:100900003C216054200000F03DFA022001003D220D
:10091000A154216809684022914322681160012195
:1009200062681540A26884231B0213402B4322698E
:100930001040184362690A400243A06980239B006B
:1009400018401043227F382313400343E06880227D
:100950001201104018432022A25C80231A40024357
:1009600020680260A069000C0422104022685060D8
:10097000002020643D202154002032BD10B5040029
:10098000002C01D1012013E002203D216054206899
:1009900000684021884321680860200000F07CFA4C
:1009A0000020206401003D22A1543C21605400201D
:1009B00010BDFFB583B0040000252800694608700B
:1009C0003C20205C012801D10220DBE00127380017
:1009D0003C216054FFF744FE02906846808A6946D5
:1009E00048803D20205C012803D002206946087021
:1009F000C2E00498002803D06846808A002803D10A
:100A0000380069460870B7E003263D202654256467
:100A1000049860626846808A20856846808A60857E
:100A2000E5622800208628006086A5636563A068CB
:100A30008021090288420CD1206800684021884347
:100A400021680860206800688021C901014320688E
:100A500001604020216809680140002904D1216813
:100A60000968084321680860E0684749884234D330
:100A70006068002803D068464088012809D1606A70
:100A800000882168C860606A801C6062608D401EBA
:100A90006085608D002855D02068806880070AD561
:100AA000606A00882168C860606A801C6062608D2E
:100AB000401E6085EDE7FFF7D3FD0299401A0699C5
:100AC000884204D306980021C943884202D106987F
:100AD0000028DED1684606704EE06068002803D02A
:100AE00068464088012809D1606A00782168087347
:100AF000606A401C6062608D401E6085608D0028C9
:100B000020D02068806880070AD5606A0078216854
:100B10000873606A401C6062608D401E6085EDE76E
:100B2000FFF79EFD0299401A0699884204D3069861
:100B30000021C943884202D106980028DED16846C8
:100B4000067019E0029A0699200000F0E5F80028E6
:100B500001D020202064A068002807D101952068DA
:100B6000C06801902068806801900198206C00287E
:100B700002D03800694608703D2027543C20255497
:100B80006846007807B0F0BD01070000FFB581B0EE
:100B900004000A9F049DFFF763FD281AC519FFF79B
:100BA0005FFD06005B48006820214843000D684354
:100BB000009020688068029901400298814201D12A
:100BC000012000E000206946097B884237D0049864
:100BD0000021C9438842ECD0FFF742FD801BA842A8
:100BE00001D2002D22D120684068E021884321688D
:100BF000486060688221490088420FD1A068802146
:100C00000902884204D0A0688021C900884205D129
:100C100020680068402188432168086001203D2148
:100C2000605400203C216054032009E00098002813
:100C300001D1002005000098401E0090B9E7002077
:100C400005B0F0BDFFB583B004000025280069465B
:100C50000870069EFFF704FD301A0C994618FFF73E
:100C6000FFFC070020680C3002902A48006823210E
:100C70004843000D7043019020688068049901404A
:100C80000598814243D0049880218900884208D188
:100C90000598002805D102980078694608706846D2
:100CA000007806980021C9438842E5D0FFF7D8FCB8
:100CB000C01BB04201D2002E21D120684068E02143
:100CC00088432168486060688221490088420FD1CA
:100CD000A06880210902884204D0A0688021C90050
:100CE000884205D120680068402188432168086057
:100CF00001203D2160543C202554032008E0019848
:100D0000002800D12E000198401E0190B4E7002079
:100D100007B0F0BD080000207CB504000E001500EF
:100D2000009533000022802109012000FFF78AFF8F
:100D3000002805D0206C20210143216403201FE0FE
:100D400000953300002280212000FFF71FFF0028BC
:100D500005D0206C202101432164032010E0009580
:100D600033000022802189002000FFF76BFF00285C
:100D700005D0206C202101432164032000E00020E5
:100D800076BDFEE7F1B586B001243C4801682143F9
:100D900001600168214005910599022501682943F8
:100DA0000160006828400590059880204001344982
:100DB0000A6802430A600968084005900598009592
:100DC00006980069002801D1029500E0029401957F
:100DD000039500260496A027FF056946380000F019
:100DE0005DF88020009001950395049669463800CF
:100DF00000F054F80420009006980069002801D102
:100E0000029500E0029401950395049669461D48F9
:100E100000F044F807B0F0BD38B505000C00002321
:100E2000DB43220092B229001748FFF7C2FD31BD13
:100E300010B5154C154820600820E06180200002A4
:100E4000A060002020616061E021C900E1602062B3
:100E500080208000A0618220400060602000FFF7B9
:100E60008DFD002801D000F075F92000FFF736FD58
:100E7000002801D000F06EF910BD000034100240CF
:100E80004010024000040050700200200030014079
:100E900080B5FFF7CDFF01BD7047FEE7F1B582B029
:100EA00000230868D840002800D1D8E00124086851
:100EB00025009D40054001950198002800D1CCE017
:100EC0004868022802D0486812281DD10298DD081F
:100ED000042675434019066A07200F27BC461D00EB
:100EE000054004277D436746AF40BE430D691F00A0
:100EF000384004277843854035432A000298DD08AE
:100F000004267543401902620298076803251E00F3
:100F1000022046432800B040874348682840844662
:100F20001E00022046436046B0403843029E3060B7
:100F30004E68012E08D04A68022A05D04A68112A54
:100F400002D04A68122A1ED1029A96681F00022215
:100F500057432A00BA409643CF68BC461A0002277E
:100F60007A43674697403743029A9760029A5668D9
:100F700022009A4096434A68120922409A4032431E
:100F80001000029A5060029AD7681E00022256434F
:100F90002A00B24097438A6894461E0002225643B4
:100FA0006246B2403A43029EF2604E68F60054D563
:100FB0003A4E980804277843305800900F27BC46D3
:100FC0001F0028003840082778436746874000986C
:100FD000B84300900298A027FF05B84201D1002431
:100FE00004E002982E4A904200D0022400981A0091
:100FF000154008225543AC4004439808042250434E
:101000003450284A1068019DA8434D68ED0302D56D
:101010000400019820431060234C2268019DAA43DC
:101020004D68AD0302D51000019A024322601F4CA7
:101030002068019DA8434D68ED0202D50200019889
:10104000104320601A4C2268019DAA434D68AD02EE
:1010500002D51000019A024322605B1C21E7F7BD14
:1010600000B51300DBB2002B03D00B009BB28361F1
:1010700002E00B009BB2836200BD10B504000D4876
:101080000168220092B21140002906D0210089B2E5
:101090000160200080B200F05FF810BD60180240CF
:1010A00000040050801802408418024000180240DA
:1010B000041802400C18024080B500F04FF8FFF70A
:1010C000E7FE01BD80B500F07FF800F00DF8FFF7F6
:1010D000F3FF00F089F81C48007800F016F91B486F
:1010E000008800F031F9F6E718B58DB02422002110
:1010F00004A800F03FF910220021684600F03AF9F8
:101100000F2004908020400008900024099410488B
:10111000006880B20A9005940B94069404A8FEF728
:10112000CFFF002801D000F015F8072000900194AF
:101130000294039400216846FFF764F9002801D067
:1011400000F008F80EB010BD0E0000200C000020CA
:101150000001FF1F00B5FEE77047FEE738B586B017
:10116000042016490A6802430A600A681040009089
:10117000009802200A6802430A6009680140009151
:101180000099019001210291039104900C4D01A955
:101190002800FFF783FE802001900A4C01A920005F
:1011A000FFF77CFE012202212800FFF759FF0022F1
:1011B00080212000FFF754FF07B030BD34100240FB
:1011C000000800500004005010B500240320FFF771
:1011D0004DFA002802D00120040001E000F0D4F80C
:1011E0002000C0B210BDFEE780B5AE225200002143
:1011F000534800F0BFF800F001F801BD80B5AE2102
:1012000049004F48FFF708FE01BDF0B54C4C050002
:10121000ADB218266E43A519802426003700FFB210
:10122000002F0CD01700FFB2374203D0FC272F70DD
:101230006D1C01E02C706D1CF6B27608EEE72600FE
:101240003700FFB2002F0CD00F00FFB2374203D09F
:10125000FC272F706D1C01E02C706D1CF6B2760817
:10126000EEE726003700FFB2002F0CD01F00FFB2C0
:10127000374203D0FC272F706D1C01E02C706D1CD1
:10128000F6B27608EEE7F0BDF0B52D4D00231C0058
:10129000A4B20C2C38DA802426003700FFB2002FCD
:1012A0000CD00F00FFB2374203D0FC272F706D1C0B
:1012B00001E02C706D1CF6B27608EEE726003700D0
:1012C000FFB2002F0CD00700FFB2374203D0FC273B
:1012D0002F706D1C01E02C706D1CF6B27608EEE7E5
:1012E00026003700FFB2002F0CD01700FFB23742A4
:1012F00003D0FC272F706D1C01E02C706D1CF6B222
:101300007608EEE75B1CC2E7F0BD38B505000D4C72
:101310002078401C0C21FFF70BFA217000220021DD
:101320000020FFF7B1FF2B00DBB22A00D2B2290068
:10133000C9B2207880B2FFF768FFFFF75FFF31BDC9
:10134000100000202103002070B50400FFF788F989
:10135000050026000020C043864202D004480068F1
:101360003618FFF77DF9401BB042FAD370BD00BFBD
:101370000400002010B50400080011000200200045
:1013800000F01CF8200010BD81B0012009490A6856
:1013900002430A60096808400090009880204005D8
:1013A00005490A6802430A600968084000900098ED
:1013B00001B07047401002403C1002401206130A70
:1013C0001A43130C1A4300BF094205D0830705D006
:1013D0000270401C491EF9D17047000013001039FB
:1013E00006D330B41400150010393CC0FCD230BC18
:1013F000490700D30CC000D504C0890002D3028085
:10140000801C002900D502707047FEE770B503000C
:101410003E20185C20282FD1002903D0100080B274
:10142000002801D1012028E03C20185C012801D1CE
:10143000022022E0012004003C255C5559631A87F4
:101440005A8700241C6422253E269D553C255C5568
:101450001C68E46880256D0025431C68E5601C68F5
:10146000646920431C6860611868C06820240443D4
:101470001868C460002000E0022070BDF8B584B098
:101480000400206805682068C068009020684069F2
:101490000190002630002907090F039103990029C4
:1014A0000AD12020054207D000990840002803D027
:1014B000200000F0D9F87EE00398002853D00120E6
:1014C00001990140002905D10099902252000A405B
:1014D000002A48D001002940C9B2002905D000994E
:1014E000C90502D5216C0143216404210D4208D0B5
:1014F000019A0240D2B2002A03D0226C0223134385
:101500002364AA0707D5019A0240D2B2002A02D06A
:10151000226C1143216408273D4207D001990840FD
:10152000C0B2002802D0206C38432064206C002810
:1015300018D02020054206D000990840002802D08B
:10154000200000F091F8206C0740002F06D020000A
:1015500000F033F8200000F0CFF803E0200000F0A6
:10156000CBF8266427E0102005420ED000990840F1
:1015700000280AD00296206800680290206840681F
:1015800002900298200000F0B9F88020054207D0B0
:1015900000990840002803D0200000F01EF80AE05F
:1015A0004020054207D000990840002803D02000C1
:1015B00000F04AF8FFE705B0F0BD0168C9684C4A81
:1015C0000A400168CA6001684969012291430268C2
:1015D000516120213E228154704710B501003D2009
:1015E000085C21282ED1886880246401A0420DD196
:1015F000086900280AD1C86A02001088C005C00D19
:101600000C686060C86A801CC86207E0C86A030092
:1016100018780C686060C86A401CC862488E401E1A
:10162000488680B200280BD10868C0688024A04397
:101630000C68E0600868C068402404430868C4601F
:10164000002000E0022010BD10B504002068C06832
:10165000402188432168C86020203D21605420003B
:1016600000F070F8002010BD38B504003E20205C6A
:1016700022283AD1A0688021490188420DD12069F1
:1016800000280AD1606B050020684068C005C00DC5
:101690002880606B801C606305E0606B411C6163A7
:1016A000216849680170608F401E608780B2002801
:1016B00019D12068C068202188432168C86020684B
:1016C000C0680C4901402068C16020684069012160
:1016D00088432168486120203E216054200000F0AA
:1016E00014F8002002E0002000E0022032BD0000DB
:1016F000DFFEFFFFFFFEFFFF7047FEE715490A8888
:101700008023DB0113430B80704770B50500104C3C
:10171000012221002800FFF779FE0F4880214900AF
:1017200041180A889204920C0E88C0231B02334091
:101730001600761CB604B60C1E430E80217892B2B9
:10174000815470BD05490A785206520E0A707047DE
:10175000200300206C0200206C0100206D0200209C
:1017600070B50400022620680069304000281CD0B3
:101770002068C0683040002817D00220C04321688C
:10178000086101202077206880698007800F002889
:1017900003D0200000F0BAF805E0200000F0B7F810
:1017A000200000F0B5F800202077042520680069AB
:1017B000284000281CD02068C0682840002817D086
:1017C0000420C04321680861267720688069C02111
:1017D00089000140002903D0200000F097F805E0BF
:1017E000200000F094F8200000F092F8002020770C
:1017F000082620680069304000281BD02068C06897
:101800003040002816D00820C043216808612577A1
:101810002068C0698007800F002803D0200000F0F6
:1018200075F805E0200000F072F8200000F070F874
:1018300000202077102021680969014000291CD070
:101840002168C9680840002817D01020C0432168CB
:10185000086126772068C069C021890001400029FD
:1018600003D0200000F052F805E0200000F04FF80F
:10187000200000F04DF80020207701202168096940
:10188000014000290BD02168C9680840002806D013
:101890000120C04321680861200000F03BF880204F
:1018A00021680969014000290BD02168C9680840F6
:1018B000002806D08020C04321680861200000F085
:1018C00037F8402021680969014000290BD02168C0
:1018D000C9680840002806D04020C043216808613C
:1018E000200000F026F82020216809690140002925
:1018F0000BD02168C9680840002806D02020C043CA
:1019000021680861200000F015F870BD704770472D
:101910007047FEE705490A68521C0A60704780B5A7
:101920000148FFF71DFF01BDF80200201803002049
:10193000704770477047000080B512480168090C75
:101940000904114A12680A43026001680F4A0A40FA
:101950000F490968090411430160802000050D4901
:101960000860642000F001F801BD80B50A494143D8
:10197000009100BF00994A1E00920029F9D101BDD3
:1019800000000000041002400001FF1FFFFF00FEE6
:101990004401FF1F08ED00E0B80B0000000000004C
:1019A0000000000000000000000000000000000037
:1019B0000000000000000000000000000100000026
:1019C0000200000003000000040000000600000008
:1019D00007000000080000000900000070B40123A7
:1019E000002413E00168001D194202D04D46691819
:1019F000491E0C60091D121F042AFAD20D00960719
:101A000001D50C80AD1C1A4000D02C700268001D5E
:101A1000002AE7D170BC704730B401220EE00368A1
:101A2000C31844680830144202D04D462C19641E75
:101A30001D6825601B1D241D091FF9D10168001DAB
:101A40000029ECD130BC704710B5074979441831F2
:101A5000064C7C44163404E0081D0A68891888473F
:101A60000100A142F8D110BD48000000680000004C
:101A7000704700B5FEE77047704780B500F00CF87E
:101A800001BD704780B50248FFF7F8FC01BD0000BA
:101A9000B40200207047000003480168034A12683E
:101AA00089180160704700BF1C030020040000205B
:101AB0002DFFFFFF140300001000002000000000B5
:101AC00059FFFFFF10000000A400000000000020EC
:101AD0000000000000000000000000000000000006
:101AE0000000000000366E01000000000000000051
:101AF0000000000000F00DF8002801D0FFF7A4FF5F
:101B000000BF00BF002000BF00BFFFF7DBFA00F0FE
:101B100002F80120704780B500F002F801BD000016
:101B20000746384600F002F8FBE7000080B500BF2A
:101B300000BF024A11001820ABBEFBE726000200DE
:101B40000548014603B4684680F3098800BF00BF1A
:101B500000BF00BFFFF7CEFFA5EDF5FE01488047AF
:101B60000148004739190008411B00080400000023
:101B70000100000000366E016400200080B51020D6
:061B8000FFF77BFA01BD36
:0400000508001B4193
:00000001FF
